{
  "address": "0x9C6BEf4c7aDaf286b8629900032c2581E28410aB",
  "abi": [
    {
      "inputs": [],
      "stateMutability": "nonpayable",
      "type": "constructor"
    },
    {
      "anonymous": false,
      "inputs": [
        {
          "indexed": true,
          "internalType": "address",
          "name": "owner",
          "type": "address"
        },
        {
          "indexed": true,
          "internalType": "address",
          "name": "spender",
          "type": "address"
        },
        {
          "indexed": false,
          "internalType": "uint256",
          "name": "value",
          "type": "uint256"
        }
      ],
      "name": "Approval",
      "type": "event"
    },
    {
      "anonymous": false,
      "inputs": [
        {
          "indexed": true,
          "internalType": "address",
          "name": "from",
          "type": "address"
        },
        {
          "indexed": true,
          "internalType": "address",
          "name": "to",
          "type": "address"
        },
        {
          "indexed": false,
          "internalType": "uint256",
          "name": "value",
          "type": "uint256"
        }
      ],
      "name": "Transfer",
      "type": "event"
    },
    {
      "inputs": [
        {
          "internalType": "address",
          "name": "_owner",
          "type": "address"
        },
        {
          "internalType": "address",
          "name": "_spender",
          "type": "address"
        }
      ],
      "name": "allowance",
      "outputs": [
        {
          "internalType": "uint256",
          "name": "remaining",
          "type": "uint256"
        }
      ],
      "stateMutability": "view",
      "type": "function"
    },
    {
      "inputs": [
        {
          "internalType": "address",
          "name": "",
          "type": "address"
        },
        {
          "internalType": "address",
          "name": "",
          "type": "address"
        }
      ],
      "name": "allowed",
      "outputs": [
        {
          "internalType": "uint256",
          "name": "",
          "type": "uint256"
        }
      ],
      "stateMutability": "view",
      "type": "function"
    },
    {
      "inputs": [
        {
          "internalType": "address",
          "name": "_spender",
          "type": "address"
        },
        {
          "internalType": "uint256",
          "name": "_amount",
          "type": "uint256"
        }
      ],
      "name": "approve",
      "outputs": [
        {
          "internalType": "bool",
          "name": "success",
          "type": "bool"
        }
      ],
      "stateMutability": "nonpayable",
      "type": "function"
    },
    {
      "inputs": [
        {
          "internalType": "address",
          "name": "_owner",
          "type": "address"
        }
      ],
      "name": "balanceOf",
      "outputs": [
        {
          "internalType": "uint256",
          "name": "balance",
          "type": "uint256"
        }
      ],
      "stateMutability": "view",
      "type": "function"
    },
    {
      "inputs": [
        {
          "internalType": "address",
          "name": "",
          "type": "address"
        }
      ],
      "name": "balances",
      "outputs": [
        {
          "internalType": "uint256",
          "name": "",
          "type": "uint256"
        }
      ],
      "stateMutability": "view",
      "type": "function"
    },
    {
      "inputs": [],
      "name": "decimals",
      "outputs": [
        {
          "internalType": "uint8",
          "name": "",
          "type": "uint8"
        }
      ],
      "stateMutability": "view",
      "type": "function"
    },
    {
      "inputs": [
        {
          "internalType": "address",
          "name": "to",
          "type": "address"
        },
        {
          "internalType": "uint256",
          "name": "amount",
          "type": "uint256"
        }
      ],
      "name": "mint",
      "outputs": [],
      "stateMutability": "nonpayable",
      "type": "function"
    },
    {
      "inputs": [],
      "name": "name",
      "outputs": [
        {
          "internalType": "string",
          "name": "",
          "type": "string"
        }
      ],
      "stateMutability": "view",
      "type": "function"
    },
    {
      "inputs": [],
      "name": "owner",
      "outputs": [
        {
          "internalType": "address",
          "name": "",
          "type": "address"
        }
      ],
      "stateMutability": "view",
      "type": "function"
    },
    {
      "inputs": [],
      "name": "symbol",
      "outputs": [
        {
          "internalType": "string",
          "name": "",
          "type": "string"
        }
      ],
      "stateMutability": "view",
      "type": "function"
    },
    {
      "inputs": [],
      "name": "totalSupply",
      "outputs": [
        {
          "internalType": "uint256",
          "name": "totalSupply",
          "type": "uint256"
        }
      ],
      "stateMutability": "view",
      "type": "function"
    },
    {
      "inputs": [
        {
          "internalType": "address",
          "name": "_to",
          "type": "address"
        },
        {
          "internalType": "uint256",
          "name": "_amount",
          "type": "uint256"
        }
      ],
      "name": "transfer",
      "outputs": [
        {
          "internalType": "bool",
          "name": "success",
          "type": "bool"
        }
      ],
      "stateMutability": "nonpayable",
      "type": "function"
    },
    {
      "inputs": [
        {
          "internalType": "address",
          "name": "_from",
          "type": "address"
        },
        {
          "internalType": "address",
          "name": "_to",
          "type": "address"
        },
        {
          "internalType": "uint256",
          "name": "_amount",
          "type": "uint256"
        }
      ],
      "name": "transferFrom",
      "outputs": [
        {
          "internalType": "bool",
          "name": "success",
          "type": "bool"
        }
      ],
      "stateMutability": "nonpayable",
      "type": "function"
    }
  ],
  "transactionHash": "0xeb7f7b95f073f5286b7f9f33ccfa75b2f9e7a41b8006fa289766af969ea417dd",
  "args": [],
  "solcInputHash": "f1bd4eb63df8f5fb61900f6a1d878bed",
  "bytecode": "0x6080604052620000126008600a620000a8565b62000022906301406f4062000173565b6000553480156200003257600080fd5b50600180546001600160a01b031916339081179091556000805491815260026020526040902055620001ab565b600181815b80851115620000a057816000190482111562000084576200008462000195565b808516156200009257918102915b93841c939080029062000064565b509250929050565b6000620000b68383620000bd565b9392505050565b600082620000ce575060016200016d565b81620000dd575060006200016d565b8160018114620000f65760028114620001015762000121565b60019150506200016d565b60ff84111562000115576200011562000195565b50506001821b6200016d565b5060208310610133831016604e8410600b841016171562000146575081810a6200016d565b6200015283836200005f565b806000190482111562000169576200016962000195565b0290505b92915050565b600081600019048311821515161562000190576200019062000195565b500290565b634e487b7160e01b600052601160045260246000fd5b61075780620001bb6000396000f3fe608060405234801561001057600080fd5b50600436106100cf5760003560e01c806340c10f191161008c5780638da5cb5b116100665780638da5cb5b1461021157806395d89b411461023c578063a9059cbb14610260578063dd62ed3e1461027357600080fd5b806340c10f19146101a85780635c658165146101bd57806370a08231146101e857600080fd5b806306fdde03146100d4578063095ea7b31461012657806318160ddd1461014957806323b872dd1461015b57806327e235e31461016e578063313ce5671461018e575b600080fd5b6101106040518060400160405280601a81526020017f4578616d706c6520466978656420537570706c7920546f6b656e00000000000081525081565b60405161011d9190610687565b60405180910390f35b61013961013436600461065d565b6102ac565b604051901515815260200161011d565b6000545b60405190815260200161011d565b610139610169366004610621565b610319565b61014d61017c3660046105d3565b60026020526000908152604090205481565b610196600881565b60405160ff909116815260200161011d565b6101bb6101b636600461065d565b610495565b005b61014d6101cb3660046105ee565b600360209081526000928352604080842090915290825290205481565b61014d6101f63660046105d3565b6001600160a01b031660009081526002602052604090205490565b600154610224906001600160a01b031681565b6040516001600160a01b03909116815260200161011d565b61011060405180604001604052806005815260200164119256115160da1b81525081565b61013961026e36600461065d565b6104c6565b61014d6102813660046105ee565b6001600160a01b03918216600090815260036020908152604080832093909416825291909152205490565b3360008181526003602090815260408083206001600160a01b038716808552925280832085905551919290917f8c5be1e5ebec7d5bd14f71427d1e84f3dd0314c0f7b2291e5b200ac8c7c3b925906103079086815260200190565b60405180910390a35060015b92915050565b6001600160a01b038316600090815260026020526040812054821180159061036457506001600160a01b03841660009081526003602090815260408083203384529091529020548211155b80156103705750600082115b801561039c57506001600160a01b03831660009081526002602052604090205461039a83826106dc565b115b1561048a576001600160a01b038416600090815260026020526040812080548492906103c99084906106f4565b90915550506001600160a01b0384166000908152600360209081526040808320338452909152812080548492906104019084906106f4565b90915550506001600160a01b0383166000908152600260205260408120805484929061042e9084906106dc565b92505081905550826001600160a01b0316846001600160a01b03167fddf252ad1be2c89b69c2b068fc378daa952ba7f163c4a11628f55a4df523b3ef8460405161047a91815260200190565b60405180910390a350600161048e565b5060005b9392505050565b6001600160a01b038216600090815260026020526040812080548392906104bd9084906106dc565b90915550505050565b3360009081526002602052604081205482118015906104e55750600082115b801561051157506001600160a01b03831660009081526002602052604090205461050f83826106dc565b115b156105af5733600090815260026020526040812080548492906105359084906106f4565b90915550506001600160a01b038316600090815260026020526040812080548492906105629084906106dc565b90915550506040518281526001600160a01b0384169033907fddf252ad1be2c89b69c2b068fc378daa952ba7f163c4a11628f55a4df523b3ef9060200160405180910390a3506001610313565b506000610313565b80356001600160a01b03811681146105ce57600080fd5b919050565b6000602082840312156105e557600080fd5b61048e826105b7565b6000806040838503121561060157600080fd5b61060a836105b7565b9150610618602084016105b7565b90509250929050565b60008060006060848603121561063657600080fd5b61063f846105b7565b925061064d602085016105b7565b9150604084013590509250925092565b6000806040838503121561067057600080fd5b610679836105b7565b946020939093013593505050565b600060208083528351808285015260005b818110156106b457858101830151858201604001528201610698565b818111156106c6576000604083870101525b50601f01601f1916929092016040019392505050565b600082198211156106ef576106ef61070b565b500190565b6000828210156107065761070661070b565b500390565b634e487b7160e01b600052601160045260246000fdfea264697066735822122035e9724986def8ff8267e587e3be8d06cce36dd60cbcd786d3b5c93ffd689a0164736f6c63430008060033",
  "devdoc": {
    "kind": "dev",
    "methods": {
      "totalSupply()": {
        "details": "Returns the amount of tokens in existence."
      }
    },
    "version": 1
  },
  "userdoc": {
    "kind": "user",
    "methods": {},
    "version": 1
  },
  "storageLayout": {
    "storage": [
      {
        "astId": 268,
        "contract": "contracts/FixedSupplyToken.sol:FixedSupplyToken",
        "label": "_totalSupply",
        "offset": 0,
        "slot": "0",
        "type": "t_uint256"
      },
      {
        "astId": 270,
        "contract": "contracts/FixedSupplyToken.sol:FixedSupplyToken",
        "label": "owner",
        "offset": 0,
        "slot": "1",
        "type": "t_address"
      },
      {
        "astId": 274,
        "contract": "contracts/FixedSupplyToken.sol:FixedSupplyToken",
        "label": "balances",
        "offset": 0,
        "slot": "2",
        "type": "t_mapping(t_address,t_uint256)"
      },
      {
        "astId": 280,
        "contract": "contracts/FixedSupplyToken.sol:FixedSupplyToken",
        "label": "allowed",
        "offset": 0,
        "slot": "3",
        "type": "t_mapping(t_address,t_mapping(t_address,t_uint256))"
      }
    ],
    "types": {
      "t_address": {
        "encoding": "inplace",
        "label": "address",
        "numberOfBytes": "20"
      },
      "t_mapping(t_address,t_mapping(t_address,t_uint256))": {
        "encoding": "mapping",
        "key": "t_address",
        "label": "mapping(address => mapping(address => uint256))",
        "numberOfBytes": "32",
        "value": "t_mapping(t_address,t_uint256)"
      },
      "t_mapping(t_address,t_uint256)": {
        "encoding": "mapping",
        "key": "t_address",
        "label": "mapping(address => uint256)",
        "numberOfBytes": "32",
        "value": "t_uint256"
      },
      "t_uint256": {
        "encoding": "inplace",
        "label": "uint256",
        "numberOfBytes": "32"
      }
    }
  }
}